:020000040800F2
:1000000000000220818801088557000887570008F2
:10001000895700088B5700088D5700080000000022
:1000200000000000000000000000000081CC00087B
:100030008F5700080000000021CD000863C60008AB
:10004000D1880108D1880108D1880108D188010828
:10005000D1880108D1880108D1880108D188010818
:10006000D1880108D1880108D1880108915700087A
:10007000D1880108A1570008D1880108B1570008AC
:10008000D1880108C1570008D1570008E15700087E
:10009000F15700081558000825580008D1880108B4
:1000A000D18801083558000845580008D188010852
:1000B0005558000865580008D1880108D188010802
:1000C000D1880108D1880108D1880108D1880108A8
:1000D000D1880108D1880108D1880108D188010898
:1000E000D1880108D1880108D1880108D188010888
:1000F0007558000885580008D188010895580008EF
:10010000D1880108D1880108D1880108A5580008C4
:10011000B5580008C5580008D5580008E55800082B
:10012000F5580008D1880108D1880108D188010854
:10013000D1880108000000000000000005590008F7
:100140001559000825590008355900084559000877
:10015000D1880108D1880108D1880108D188010817
:10016000D1880108D1880108D1880108D188010807
:10017000D1880108D18801080000000000000000BB
:08018000D1880108D1880108B3
:1001C00081F0004102E000BF83F0004330B54FEA08
:1001D00041044FEA430594EA050F08BF90EA020F75
:1001E0001FBF54EA000C55EA020C7FEA645C7FEA08
:1001F000655C00F0E2804FEA5454D4EB5555B8BF2B
:100200006D420CDD2C4480EA020281EA030382EA9B
:10021000000083EA010180EA020281EA0303362D2D
:1002200088BF30BD11F0004F4FEA01314FF4801C00
:100230004CEA113102D0404261EB410113F0004F12
:100240004FEA03334CEA133302D0524263EB4303C9
:1002500094EA050F00F0A780A4F10104D5F1200E67
:100260000DDB02FA0EFC22FA05F2801841F10001C2
:1002700003FA0EF2801843FA05F359410EE0A5F196
:1002800020050EF1200E012A03FA0EFC28BF4CF0C7
:10029000020C43FA05F3C01851EBE37101F000457D
:1002A00007D54FF0000EDCF1000C7EEB00006EEB8A
:1002B0000101B1F5801F1BD3B1F5001F0CD3490814
:1002C0005FEA30004FEA3C0C04F101044FEA44526B
:1002D00012F5800F80F09A80BCF1004F08BF5FEAF2
:1002E000500C50F1000041EB045141EA050130BDD2
:1002F0005FEA4C0C404141EB0101013C28BFB1F5E4
:10030000801FE9D291F0000F04BF01460020B1FA2E
:1003100081F308BF2033A3F10B03B3F120020CDA01
:100320000C3208DD02F1140CC2F10C0201FA0CF0DF
:1003300021FA02F10CE002F11402D8BFC2F1200C44
:1003400001FA02F120FA0CFCDCBF41EA0C019040FA
:10035000E41AA2BF01EB0451294330BD6FEA040443
:100360001F3C1CDA0C340EDC04F11404C4F120022E
:1003700020FA04F001FA02F340EA030021FA04F340
:1003800045EA030130BDC4F10C04C4F1200220FA97
:1003900002F001FA04F340EA0300294630BD21FAD5
:1003A00004F0294630BD94F0000F83F4801306BF9B
:1003B00081F480110134013D4EE77FEA645C18BF8F
:1003C0007FEA655C29D094EA050F08BF90EA020F26
:1003D00005D054EA000C04BF1946104630BD91EA1E
:1003E000030F1EBF0021002030BD5FEA545C05D121
:1003F0004000494128BF41F0004130BD14F5800460
:100400003CBF01F5801130BD01F0004545F0FE41D3
:1004100041F470014FF0000030BD7FEA645C1ABF08
:10042000194610467FEA655C1CBF0B46024650EA3F
:10043000013406BF52EA033591EA030F41F400216B
:1004400030BD00BF90F0000F04BF0021704730B5F1
:100450004FF4806404F132044FF000054FF00001C6
:1004600050E700BF90F0000F04BF0021704730B587
:100470004FF4806404F1320410F0004548BF40425C
:100480004FF000013EE700BF42004FEAE2014FEAB1
:1004900031014FEA02701FBF12F07F4393F07F4F8C
:1004A00081F06051704732F07F4208BF704793F08F
:1004B0007F4F04BF41F40021704730B54FF46074A2
:1004C00001F0004521F000411CE700BF50EA0102A5
:1004D00008BF704730B54FF000050AE050EA01024E
:1004E00008BF704730B511F0004502D5404261EBBE
:1004F00041014FF4806404F132045FEA915C3FF4FF
:10050000D8AE4FF003025FEADC0C18BF03325FEA9B
:10051000DC0C18BF033202EBDC02C2F1200300FA4C
:1005200003FC20FA02F001FA03FE40EA0E0021FA71
:1005300002F11444BDE600BF70B54FF0FF0C4CF45F
:10054000E06C1CEA11541DBF1CEA135594EA0C0F11
:1005500095EA0C0F00F0DEF82C4481EA030621EA4C
:100560004C5123EA4C5350EA013518BF52EA033587
:1005700041F4801143F4801338D0A0FB02CE4FF039
:100580000005E1FB02E506F00042E0FB03E54FF069
:100590000006E1FB03569CF0000F18BF4EF0010E61
:1005A000A4F1FF04B6F5007F64F5407404D25FEA5D
:1005B0004E0E6D4146EB060642EAC62141EA555110
:1005C0004FEAC52040EA5E504FEACE2EB4F1FD0C52
:1005D00088BFBCF5E06F1ED8BEF1004F08BF5FEAD0
:1005E000500E50F1000041EB045170BD06F0004682
:1005F00046EA010140EA020081EA0301B4EB5C042F
:10060000C2BFD4EB0C0541EA045170BD41F4801126
:100610004FF0000E013C00F3AB8014F1360FDEBF4B
:10062000002001F0004170BDC4F10004203C35DA27
:100630000C341BDC04F11404C4F1200500FA05F3AA
:1006400020FA04F001FA05F240EA020001F000424B
:1006500021F0004110EBD37021FA04F642EB0601C1
:100660005EEA430E08BF20EAD37070BDC4F10C04EB
:10067000C4F1200500FA04F320FA05F001FA04F2AF
:1006800040EA020001F0004110EBD37041F100019B
:100690005EEA430E08BF20EAD37070BDC4F12005A6
:1006A00000FA05F24EEA020E20FA04F301FA05F20E
:1006B00043EA020321FA04F001F0004121FA04F2B6
:1006C00020EA020000EBD3705EEA430E08BF20EA86
:1006D000D37070BD94F0000F0FD101F000464000C0
:1006E00041EB010111F4801F08BF013CF7D041EA42
:1006F000060195F0000F18BF704703F00046520046
:1007000043EB030313F4801F08BF013DF7D043EA16
:100710000603704794EA0C0F0CEA135518BF95EACC
:100720000C0F0CD050EA410618BF52EA4306D1D153
:1007300081EA030101F000414FF0000070BD50EA72
:10074000410606BF1046194652EA430619D094EAFC
:100750000C0F02D150EA013613D195EA0C0F05D1E6
:1007600052EA03361CBF104619460AD181EA03013A
:1007700001F0004141F0FE4141F470014FF00000F2
:1007800070BD41F0FE4141F4780170BD70B54FF08D
:10079000FF0C4CF4E06C1CEA11541DBF1CEA13550D
:1007A00094EA0C0F95EA0C0F00F0A7F8A4EB0504EF
:1007B00081EA030E52EA03354FEA013100F08880E6
:1007C0004FEA03334FF0805545EA131343EA1263AF
:1007D0004FEA022245EA111545EA10654FEA002664
:1007E0000EF000419D4208BF964244F1FD0404F51D
:1007F000407402D25B084FEA3202B61A65EB030579
:100800005B084FEA32024FF480104FF4002CB6EB35
:10081000020E75EB030E22BFB61A754640EA0C00B5
:100820005B084FEA3202B6EB020E75EB030E22BFF5
:10083000B61A754640EA5C005B084FEA3202B6EB36
:10084000020E75EB030E22BFB61A754640EA9C00F5
:100850005B084FEA3202B6EB020E75EB030E22BFC5
:10086000B61A754640EADC0055EA060E18D04FEA83
:10087000051545EA16754FEA06164FEAC30343EA23
:1008800052734FEAC2025FEA1C1CC0D111F4801FF0
:100890000BD141EA00014FF000004FF0004CB6E7E9
:1008A00011F4801F04BF01430020B4F1FD0C88BF88
:1008B000BCF5E06F3FF6AFAEB5EB030C04BFB6EB93
:1008C000020C5FEA500C50F1000041EB045170BD86
:1008D0000EF0004E4EEA113114EB5C04C2BFD4EBB3
:1008E0000C0541EA045170BD41F480114FF0000E37
:1008F000013C90E645EA060E8DE60CEA135594EAB3
:100900000C0F08BF95EA0C0F3FF43BAF94EA0C0FB5
:100910000AD150EA01347FF434AF95EA0C0F7FF42A
:1009200025AF104619462CE795EA0C0F06D152EA7E
:1009300003353FF4FDAE1046194622E750EA410662
:1009400018BF52EA43067FF4C5AE50EA41047FF473
:100950000DAF52EA43057FF4EBAE12E74FF0FF3CD8
:1009600006E000BF4FF0010C02E000BF4FF0010CA9
:100970004DF804CD4FEA410C7FEA6C5C4FEA430C22
:1009800018BF7FEA6C5C1BD001B050EA410C0CBF71
:1009900052EA430C91EA030F02BF90EA020F0020D3
:1009A000704710F1000F91EA030F58BF994208BF3A
:1009B00090422CBFD8176FEAE37040F001007047F7
:1009C0004FEA410C7FEA6C5C02D150EA013C07D14E
:1009D0004FEA430C7FEA6C5CD6D152EA033CD3D099
:1009E0005DF8040B704700BF8446104662468C4693
:1009F0001946634600E000BF01B5FFF7B7FF0028C6
:100A000048BF10F1000F01BD4DF808EDFFF7F4FFEE
:100A10000CBF012000205DF808FB00BF4DF808ED79
:100A2000FFF7EAFF34BF012000205DF808FB00BF9C
:100A30004DF808EDFFF7E0FF94BF012000205DF8BE
:100A400008FB00BF4DF808EDFFF7CEFF94BF012073
:100A500000205DF808FB00BF4DF808EDFFF7C4FF6C
:100A600034BF012000205DF808FB00BF4FEA410CB5
:100A70007FEA6C5C02D150EA013C0AD14FEA430C98
:100A80007FEA6C5C02D152EA033C02D14FF00000D5
:100A900070474FF0010070474FEA410212F5001213
:100AA00015D211D56FF47873B3EB625212D94FEAB5
:100AB000C12343F0004343EA505311F0004F23FA9F
:100AC00002F018BF404270474FF00000704750EAF4
:100AD000013005D111F0004008BF6FF000407047B1
:100AE0004FF00000704700BF4A0011D212F500120B
:100AF00011D20DD56FF47873B3EB62520ED44FEA76
:100B0000C12343F0004343EA505323FA02F07047F5
:100B10004FF00000704750EA013002D14FF0FF3033
:100B200070474FF0000070474FEA4102B2F1E043D6
:100B300024BFB3F5001CDCF1FE5C0DD901F0004CC4
:100B40004FEAC0024CEA5070B2F1004F40EB830014
:100B500008BF20F00100704711F0804F21D113F140
:100B60003872BCBF01F00040704741F480114FEA79
:100B70005252C2F11802C2F1200C10FA0CF320FA02
:100B800002F018BF40F001004FEAC1234FEAD3231F
:100B900003FA0CFC40EA0C0023FA02F34FEA430389
:100BA000CCE77FEA625307D150EA01331EBF4FF012
:100BB000FE4040F44000704701F0004040F0FE402D
:100BC00040F40000704700BF53B94AB9002908BF7C
:100BD00000281CBF4FF0FF314FF0FF3000F0E2B8AB
:100BE000ADF1080C6DE904CE20F00CFEDDF804E058
:100BF000DDE9022304B0704700F1340191E83800C8
:100C00009C46A6464CF8045D90E8FF0FE54600BD03
:100C100090EC210B704700BF80EC210B704700BFA8
:100C200090EC200B704700BF80EC200B704700BF9A
:100C3000D0EC200B704700BFC0EC200B704700BF0A
:100C4000F0EC0201F0EC0211F0EC0221F0EC0231C8
:100C5000F0EC0241F0EC0251F0EC0261F0EC0271B8
:100C6000F0EC0281F0EC0291F0EC02A1F0EC02B1A8
:100C7000F0EC02C1F0EC02D1F0EC02E1F0EC02F198
:100C8000704700BFE0EC0201E0EC0211E0EC022151
:100C9000E0EC0231E0EC0241E0EC0251E0EC0261F8
:100CA000E0EC0271E0EC0281E0EC0291E0EC02A1E8
:100CB000E0EC02B1E0EC02C1E0EC02D1E0EC02E1D8
:100CC000E0EC02F1704700BFB0FC0181B0FC019183
:100CD000B0FC01A1B0FC01B1704700BFA0FC0181D4
:100CE000A0FC0191A0FC01A1A0FC01B1704700BFD4
:100CF000EC4600B52DE900502DE9FF1F4FF0000331
:100D00002DE90C0001A921F02FF8DDF840E012B028
:100D1000704700BFEC4600B52DE900502DE9FF1FDC
:100D20004FF000032DE90C0001A921F059F8DDF87E
:100D300040E012B0704700BFEC4600B52DE900500E
:100D40002DE9FF1F4FF000032DE90C0001A921F050
:100D500067F8DDF840E012B0704700BFEC4600B520
:100D60002DE900502DE9FF1F4FF000032DE90C0085
:100D700001AB21F02DF8DDF840E012B0704700BF64
:100D8000EC4600B52DE900502DE9FF1F4FF00003A0
:100D90002DE90C0001AA21F09FF8DDF840E012B027
:100DA000704700BF704700BF000000000000000057
:100DB0000000000000000000000000000000000033
:100DC00002780B78012A28BF9A4240F0D8806DE95A
:100DD000044540EA0104CDE902676FF0000C4FEAD8
:100DE00044721AB380EA010414F0070F6BD100F0CB
:100DF000070420F0070004F0030521F007014FEA83
:100E0000C505F0E8042314F0040FF1E804670CFAB8
:100E100005F462EA040266EA04060BD063EA0403FE
:100E2000624667EA0407664604E000BFF0E8042370
:100E3000F1E8046782FA4CF582EA0604A4FA8CF41D
:100E40006CBB83FA4CF583EA0705A5FA8CF595B9D6
:100E500050E9022351E9026782FA4CF582EA06045E
:100E6000A4FA8CF483FA4CF583EA0705A5FA8CF50D
:100E70002543DBD09CB92DBAB5FA85F424F00704DC
:100E800027FA04F1DDE9026723FA04F303F0FF0017
:100E900001F0FF01FDE80445A0EB0100704724BA12
:100EA000B4FA84F424F0070426FA04F1DDE90267B9
:100EB00022FA04F202F0FF0001F0FF01FDE8044510
:100EC000A0EB0100704714F0030F3CD110F00304B5
:100ED00028D150F8082B51F8083B82FA4CF582EAE9
:100EE0000305A5FA8CF55DB950F8042C51F8043CC3
:100EF00082FA4CF582EA0305A5FA8CF5002DE8D0BC
:100F00002DBAB5FA85F424F0070423FA04F122FA85
:100F100004F202F0FF0001F0FF01FDE80445A0EB40
:100F2000010070474FEAC40420F0030050F8082B7A
:100F300021F0030151F8083B0CFA04F462EA0402C0
:100F400063EA0403C9E710F003041DD0A1EB040118
:100F500020F00300E40750F8042B06D012D28B785F
:100F60005FFAA2F4E41A06D12BB1CB785FFAB2F49F
:100F7000E41A00D133B920465DF8104B7047A2EB5C
:100F80000300704701F1040150F8042BCC0721F055
:100F9000030151F8043B48D824D222F07F4482FA5E
:100FA0004CF594EA1325A5FA8CF50AD165B951F8E8
:100FB000043B84EA0204B4EB036F0ED150F8042B17
:100FC000EBE74FEA132355E035F07F454DD1087824
:100FD000FDE80445C0F1000070474FEA126203F0DB
:100FE000FF0347E002EA1C4482FA4CF594EA1345F9
:100FF000A5FA8CF50AD165B951F8043B84EA0204DC
:10100000B4EB034F0CD150F8042BEBE74FEA13433A
:1010100030E015EA1C4528D10B884FEA124229E03E
:101020004FEA124203EA1C4324E002F0FF0482FA72
:101030004CF594EA1365A5FA8CF50AD165B951F817
:10104000043B84EA0204B4EB032F09D150F8042BCB
:10105000EBE74FEA13630DE015F0FF0F05D10B68C6
:101060004FEA122223F07F4304E04FF00000FDE836
:101070000445704712BA1BBA82FA4CF482EA0304A0
:10108000A4FA8CF5B5FA85F402FA04F203FA04F333
:101090004FEA1260FDE80445A0EB1360704700BF03
:1010A00001F0FF01102A2BDB10F0070F08D010F819
:1010B000013B013A8B422DD010F0070F42B3F6D11D
:1010C000F0B441EA012141EA014122F007047FF036
:1010D00000070023F0E80256083C85EA010586EA8D
:1010E000010685FA47F5A3FA87F586FA47F6A5FAC9
:1010F00087F68EB9EED1F0BC01F0FF0102F00702D5
:1011000032B110F8013B013A83EA010313B1F8D17F
:101110000020704701387047002D06BF3546033860
:10112000073815F0010F07D1013015F4807F02BF99
:10113000013015F4C03F0130F0BC0138704700BFEA
:10114000844641EA000313F003036DD1403A41D3D2
:1011500051F8043B40F8043B51F8043B40F8043B91
:1011600051F8043B40F8043B51F8043B40F8043B81
:1011700051F8043B40F8043B51F8043B40F8043B71
:1011800051F8043B40F8043B51F8043B40F8043B61
:1011900051F8043B40F8043B51F8043B40F8043B51
:1011A00051F8043B40F8043B51F8043B40F8043B41
:1011B00051F8043B40F8043B51F8043B40F8043B31
:1011C00051F8043B40F8043B51F8043B40F8043B21
:1011D000403ABDD2303211D351F8043B40F8043BC1
:1011E00051F8043B40F8043B51F8043B40F8043B01
:1011F00051F8043B40F8043B103AEDD20C3205D3D1
:1012000051F8043B40F8043B043AF9D2043208D0C8
:10121000D2071CBF11F8013B00F8013B01D30B883A
:1012200003806046704700BF082A13D38B078DD018
:1012300010F003038AD0C3F10403D21ADB071CBFEA
:1012400011F8013B00F8013B80D331F8023B20F854
:10125000023B7BE7043AD9D3013A11F8013B00F88D
:10126000013BF9D20B7803704B7843708B78837015
:101270006046704700000000000000000000000011
:1012800030B490F800F020F007016FF0000C10F07F
:10129000070491F820F040F048804FF000046FF010
:1012A0000700D1E9002391F840F000F1080082FA2C
:1012B0004CF2A4FA8CF283FA4CF3A2FA8CF34BBBF7
:1012C000D1E9022382FA4CF200F10800A4FA8CF270
:1012D00083FA4CF3A2FA8CF3E3B9D1E9042382FA3E
:1012E0004CF200F10800A4FA8CF283FA4CF3A2FA53
:1012F0008CF37BB9D1E9062301F1200182FA4CF28B
:1013000000F10800A4FA8CF283FA4CF3A2FA8CF3F1
:10131000002BC6D0002A04BF04301A4612BAB2FA13
:1013200082F200EBD20030BC7047D1E9002304F018
:101330000305C4F100004FEAC50514F0040F91F84D
:1013400040F00CFA05F562EA05021CBF63EA0503EA
:1013500062464FF00004AAE70348044B834202D0E0
:10136000034B03B118477047F4080020F40800202D
:10137000000000000548064B1B1AD90F01EBA30122
:10138000491002D0034B03B118477047F4080020FE
:10139000F40800200000000010B5064C237843B983
:1013A000FFF7DAFF044B13B10448AFF300800123C9
:1013B000237010BDF8080020000000003CCF020898
:1013C00008B5054B1BB105490548AFF30080BDE8E2
:1013D0000840FFF7CFBF00BF00000000FC0800205E
:1013E0003CCF02084FF0FF307047C068704738B5F7
:1013F000846894420CD22144121B13B11D682C4402
:101400001C6000248460C06804682468A04738BD5C
:10141000A41A846013B11968114419600020F6E71A
:1014200010B58468C06803685B689847204410BDA5
:10143000002070470020704700207047032A55D9CC
:101440002DE9F04184B004460D8815F4004F50D1C9
:101450004B8801F1040C1EB2C3F30E03264800684A
:10146000834240D22548006850F8230000283AD033
:101470001BB1234BB3F800E001E04FF0010E0CEB81
:10148000020313F8067C13F8053C47EA03239E4544
:1014900029D18F8806311E2F00D91E2704F10A0397
:1014A000DFF860C0CDF800C0DFF85CC0CDF800C048
:1014B000029303970368D3F800806B46083AC0474D
:1014C000002E03DB002004B0BDE8F081039BFA1A74
:1014D00045F40045214621F8085F606803681B68F1
:1014E00002329847EEE74FF0FF30ECE74FF0FF3065
:1014F00070470020E7E700BF1C09002020090020FA
:101500001809002060D102088CD1020880EA01206D
:10151000082303E0400080B2013BDBB24BB110F482
:10152000004FF7D0400080B280F4755080F0250065
:10153000F2E7704738B50C4604E014F8011BFFF7DA
:10154000E5FF2A46551E002AF7D138BD08B5FFF73A
:10155000F1FF08BD4840082303E04000C0B2013B52
:10156000DBB23BB110F0800FF7D04000C0B280F08A
:101570003700F4E7704738B50C4604E014F8011B57
:10158000FFF7E8FF2A46551E002AF7D138BD08B5F7
:10159000FFF7F1FF08BD2DE9F04704460D461E4652
:1015A0004FF0000828E06379AA2B35D00023A36010
:1015B00019E094F90630002B31DA0023A36012E021
:1015C0000322611D4220FFF7E2FF58B30023A3600E
:1015D00009E0D4F88C307F2B05D82A78591CC4F840
:1015E0008C1023441A73A368032B23D0013516B142
:1015F0003368013333603A46571E002A3AD0A26856
:10160000022AE6D82B7802F10109C4F80890224496
:101610005371B9F1010FC6D0B9F1020FC9D0B9F1B8
:10162000030FCDD0B9F1030FDDD1A3790233C4F894
:101630009030D8E7D4F88C30D4F890904B45D5D181
:1016400004F10C0A4A46514641F23730FFF77EFF5B
:1016500048B9D4F8940003681B68A9F10202514606
:10166000984748EA00080023C4F89030C4F88C304A
:10167000A360BBE74046BDE8F0877F2A3ED82DE94E
:10168000F04182B006460F4614460025ADF80450DE
:101690008DF80650AA238DF804308DF8052002221B
:1016A00001A94220FFF773FF8DF8060070680368F8
:1016B000D3F800802B46032201A9C04708BB7068FD
:1016C00003681D68002322463946A847E0B9224630
:1016D000394641F23730FFF739FFC0F30F238DF859
:1016E00000308DF80100706803681C680023022236
:1016F0006946A04758B902B0BDE8F0814FF0FF300D
:1017000070474FF0FF30F6E74FF0FF30F3E74FF050
:10171000FF30F0E770B505460C46FFF7B1FD024615
:1017200023681E68002329462046B04770BDF8B5DF
:10173000044616461F46C568954200D915462A46F6
:10174000A068FFF7FDFCA3682B44A360E3685B1B64
:10175000E36017B13B682B443B60B54201D10020E8
:10176000F8BD4FF0FF30FBE730B585B00D461446AD
:1017700011460B48FFF7CEFF21460A48FFF7CAFF84
:101780002B46094A0A2101A826F03EFE214601A85F
:10179000FFF7C0FF21460548FFF7BCFF05B030BD8D
:1017A000E8CF0208F4CF0208FCCF020800D00208FC
:1017B000032A00D8704700B585B00A681049009127
:1017C000104900910292039369460F48FFF7A2FF68
:1017D0006A4600210D48FFF7C7FF69460C48FFF72E
:1017E00099FF0C4B186803685B686A4601219847AB
:1017F00069460948FFF78EFF05B05DF804FB00BF9E
:1018000060D102089CD10208C8E902080400002047
:1018100020D0020814090020940703089A4201D23C
:1018200041F82200704700207047F8B505460C4685
:10183000002607E02B689B6814F8011B2846984790
:1018400006443A46571E002AF4D13046F8BD0EB47D
:10185000F0B592B0054617AB53F8046B01930093B3
:101860003246402102A824F025FE021E21DB3F2A39
:1018700012D802AF2B68DB683946284698470446E1
:1018800002AB9F4202D0384624F054FE204612B0EC
:10189000BDE8F04003B07047541C204624F042FEDF
:1018A000074640B1019B3246214624F003FE024622
:1018B000E0E70024EAE70024E8E790F90B30002B8A
:1018C00005DBC18003680BB100225A547047C37A0C
:1018D00061F30603C372002343547047C37A6FF366
:1018E000C713C3725BB2002B01DB00220260002B26
:1018F00001DB00228280002B06DB0023C38003680B
:101900000BB100221A707047C37A6FF30603C372DB
:1019100000230370704710B5044690F90B30002B7C
:1019200007DB01DB026822B1002B06DB206824F014
:1019300001FE2046FFF7D2FF10BD2046F7E710B5A5
:101940000446FFF7E8FF204610BD2DE9F04184B0C2
:1019500004460D46092940D890F90B30002B24DBB2
:10196000026812B30A46016801A8FFF7E9FB94F97F
:101970000B30002B29DB206824F0DCFD94F90B30C0
:10198000002B24DBE688E37A43F08003E3725BB24A
:10199000002B20DB20682A4601A9FFF7D1FB314646
:1019A0002046FFF78AFF012046E0002B09DBE18893
:1019B000E37A43F08003E3722046FFF77EFF0120C5
:1019C0003AE0E17A01F07F01F2E72046D4E7E67AD7
:1019D00006F07F06D7E72046DDE7103525F00F0536
:1019E000B5F5803F40D290F90B30002B27DBC7883C
:1019F000002B28DB2068294625F040FB8046A8B351
:101A000094F90B30002B20DBA6880136002B1EDB5F
:101A1000B54222D8E37A6FF3C713E372013D5BB29C
:101A2000002B00DBA580002B01DBC4F800803946C9
:101A30002046FFF742FF012004B0BDE8F081C77ADD
:101A400007F07F07D4E70020D5E70A26DDE70B2261
:101A50002146404625F09CF8DAE7AA1B002108EB56
:101A6000060025F015F9D5E70020E5E70020E3E7BB
:101A700010B5044690F90B30002B01DB026822B14F
:101A8000002B07DBA388994217D92046FFF75DFF9B
:101A900010B910BD0A23F6E794F90B20002A08DBE1
:101AA000E38823B9002A00DB246800232370012087
:101AB000EFE7E37A03F07F03F3E70120E9E770B58E
:101AC00004460E4615461146FFF7D2FF70B194F951
:101AD0000B30002B0EDB20686A1C314625F058F8CD
:101AE00029462046FFF7E9FE204670BD2046FFF755
:101AF00012FFF9E72046EFE738B505460C46FFF739
:101B0000EDFE3CB12046FFF7BBFB024621462846CE
:101B1000FFF7D5FF284638BD012800D070474FF6A3
:101B2000FF739942FAD110B5054C06492046FFF7DC
:101B3000E3FF054A0549204616F050FF10BD00BFDF
:101B400024090020CCE20208000000203F19000810
:101B500008B54FF6FF710120FFF7DEFF08BD2DE944
:101B6000F04182B080460F4614461E46BDF8205014
:101B700001EB030C53199BB200931FFA8CF300F096
:101B80001CFC60B90DE00022009233462246394623
:101B9000404600F08FFB0134A4B2013DADB2002DF0
:101BA000F1D102B0BDE8F08110B582B003681B7CB2
:101BB000446B03FB01F1C90089B20C44009400217D
:101BC00000F05CFF02B010BD2DE9F041064690F830
:101BD000387090F83950036893F8118000242A4631
:101BE00021463046FFF7E0FF0134E4B20135EDB2A3
:101BF000A74201D9A845F2D8BDE8F08108B503682D
:101C00001B7C90F8382003FB02F2D2000021406BCD
:101C100025F03EF808BD10B50446FFF7D5FF204675
:101C200000F052FF10BD10B5044680F83910036B68
:101C30001B689847236B5B682046984710BD10B51A
:101C4000044690F8933023B900212046FFF7EBFFBC
:101C500010BDFFF7D3FFF7E738B50446FFF7B4FF31
:101C600094F8393094F838501D44EDB223685B7C09
:101C7000AB4208D994F8933053B929462046FFF770
:101C8000D2FF012038BD204600F01EFF0020F9E7FA
:101C90002046FFF7B3FFF0E710B50446FFF7CFFF8C
:101CA0002046FFF7D9FF0028FAD100212046FFF790
:101CB000BAFF10BD102303700048704730090020A0
:101CC00030B585B004460D4600931346084A0949CD
:101CD00000F01CFF0DF10F00FFF7ECFF014600952F
:101CE000054B9DF80F20204600F08DFC05B030BD5F
:101CF00029280008D5290008E7230008405C704720
:101D00004218435C507800EB032080B270470020FB
:101D1000704738B504460D4600212846FFF7EEFF10
:101D2000207001212846FFF7E9FF60700221284654
:101D3000FFF7E4FFA07003212846FFF7DFFFE07004
:101D400004212846FFF7DAFF207105212846FFF716
:101D5000D5FF607106212846FFF7D0FFA07107214B
:101D60002846FFF7CBFFE07108212846FFF7C6FFA2
:101D7000207209212846FFF7C1FF60720A21284618
:101D8000FFF7BCFFA0720B212846FFF7B7FFE072F8
:101D90000C212846FFF7B2FF20730D212846FFF7DC
:101DA000ADFF60730E212846FFF7A8FFA0730F2137
:101DB0002846FFF7A3FFE07310212846FFF79EFF98
:101DC000207411212846FFF79BFF608213212846CB
:101DD000FFF796FFA08215212846FFF791FFE082CA
:101DE00038BD30B5024690F80CE00468207840FA1F
:101DF0000EF05FFA80FC0EEB0103DBB2072B0FD96C
:101E0000CEF1080E5FFA8EFE651C156094F801C0D5
:101E10000CFA0EFC4CEA000C5FFA8CFC083BDBB2BF
:101E20004FF0FF30884013732CEA000030BD38B506
:101E3000044600F160050166002380F86C3090F8DC
:101E400078102846FFF7CDFF84F86A0094F87910DF
:101E50002846FFF7C6FF84F86B0094F8923084F8A8
:101E60006E30B3FA83F35B0984F86F3038BD10B578
:101E70000C46FFF7B6FF013CE4B20123A340C01AB1
:101E800040B210BD012B08D0022B09D013B1401A6B
:101E900080B27047104480B27047084480B27047E7
:101EA000801A80B27047012B08D0022B09D013B1E1
:101EB000104480B27047084480B27047801A80B2E4
:101EC0007047401A80B270472DE9F04F89B005463F
:101ED0008A46079290F968305FFA83FB90F969208F
:101EE000D3B2039319E0CDF814A01FE095F86E303B
:101EF00085F892300097059B0699284600F0DAF99C
:101F0000B2453CD3ABEB040454445FFA84FA039B20
:101F10000133DBB203934FF0000B95F96A40E4B252
:101F2000A4EB0B06F6B2B245DDD30596B5F8669084
:101F30004FFA8BF19DF90C8095F870703B46424644
:101F40000491B5F86400FFF7AEFF06903B464246A9
:101F500004994846FFF796FF0246079B002BC5D120
:101F600095F86D30002BCBD195F86F3085F8923015
:101F70000097059B0699284600F09CF9C0E70AEBFC
:101F80000B0385F8683085F8698009B0BDE8F08FEB
:101F90002DE9F04F85B0044600F16005FFF747FFDB
:101FA00094F96B7094F87A102846FFF760FF80462A
:101FB00094F87B102846FFF75AFF064694F87C10E9
:101FC0002846FFF754FF039094F96A90B9F1000F87
:101FD00054DD3E44F6B2764276B294F870B05B4679
:101FE00032464146B4F86400FFF75DFF8246A4F82C
:101FF00064005B4632464146B4F86600FFF742FF94
:102000000246A4F86600BBF1030F66D8DFE80BF0C8
:10201000023A47591AFA89F39BB2384480B20090C9
:102020005146204600F0C9F940B3002384F86830D7
:1020300084F8693094F876102846FFF7D2FE80467F
:1020400094F877102846FFF7CCFE0646002241465A
:102050002046FFF739FF012231462046FFF734FFC3
:1020600001212846FFF7BDFE0028EFD194F9693021
:10207000BB42DFDB94F86E3084F89230039805B0F1
:10208000BDE8F08FAAEB070189B201310AF1010323
:102090009BB210FA89F080B21FFA81FABFE71FFAEB
:1020A00089F1AAEB010189B201310AF101039BB266
:1020B000C61BB6B20136013080B2B2B21FFA81FA45
:1020C000ADE70AEB07039BB21FFA89F1411A89B207
:1020D0000131013080B28AB2A1E753469FE770B563
:1020E0000E46846D1734FF2913D8602903D9B0F840
:1020F00088301C4406E0402904D9B0F886301C44DE
:1021000000E01C44637803B32278B242F9D1A01CEA
:102110001CE0B0F88A301C44254600212846FFF711
:10212000EFFD044402212846FFF7EAFD043586420C
:10213000F3D801E0A3781C442278637853EA0223A1
:1021400005D09E42F6D1E01C00E0002070BD0020CA
:10215000FCE710B50446A0F86410A0F86620194604
:10216000FFF7BDFF28B101462046FFF711FF80B2FF
:1021700010BD0020FCE7F8B504460D4616461F4684
:1021800090F87030032B07D8DFE803F0020D121728
:10219000C36D9847304486B23B46324629462046B6
:1021A000FFF7D7FFF8BDC36D9847281A85B2F3E74C
:1021B000C36D9847301A86B2EEE7C36D984728443E
:1021C00085B2E9E7836D6BB390F9812080F88E20AA
:1021D00090F9823080F88F3090F88D1011B301297A
:1021E00013D000B590F97EC090F980100CEB010E71
:1021F000724504DACAB252FA8CFC80F88EC08B4267
:1022000001DD80F88F105DF804FB90F983108A429D
:1022100001DA80F88E1090F98420934202DD80F874
:102220008F20704770470000014BC365704700BFA7
:102230000F1D0008836D8B4209D010B504468165DF
:102240007430FFF766FD2046FFF7BCFF10BD7047F6
:1022500000B5B0F800E0B1F800C0F4441FFA8CFCFF
:10226000E64505D99E4513D203F1FF3C1FFA8CFCCD
:102270009E450FD294450FD9964500D372469C4592
:1022800000D8634602809B1A0B8001205DF804FB96
:102290009646EDE70020F9E70020F7E730B583B078
:1022A000C48F121BC46A9DF81850009592B2A047C3
:1022B00003B030BD70B584B004469DF82000ADF881
:1022C0000E10ADF80C20ADF80A3094F88C305BB3EA
:1022D000BDF80A3043B3012B03D9022826D00328C6
:1022E0002DD010F0010534D1B4F84C20BDF80C30DD
:1022F0009A4219D8B4F84E20934215D2B4F84A3015
:10230000B4F848200DF10A010DF10E00FFF7A0FF0F
:1023100050B1236B9E680095BDF80A30BDF80C20C3
:10232000BDF80E102046B04704B070BD8AB2D31A73
:102330009BB2ADF80E300133ADF80E30D1E7BDF8E9
:102340000C20D31A9BB2ADF80C300133ADF80C3031
:10235000C7E7B4F84820BDF80E309A42E4D8B4F884
:102360004A209342E0D2B4F84E30B4F84C200DF13C
:102370000A0103A8FFF76CFF0028CAD1D4E780F850
:102380009210022902D9012380F8923070478A42C4
:1023900005D2834209D89A4209D901207047834265
:1023A00007D99A4207D901207047012070470020C1
:1023B0007047002070470020704770B504460D46F6
:1023C0001E46BDF81030B0F84E10B0F84C00FFF7C4
:1023D000DEFF38B133462A46B4F84A10B4F8480054
:1023E000FFF7D5FF70BD70B59DF8105002F0070ED5
:1023F0004FF0010C0CFA0EFC5FFA8CFC90F8926026
:10240000012E1BD90024012E1AD022F0070292B20D
:102410000668367C16FB02F292B20A44416B114404
:10242000DDB90A782243D2B20A7082EA0C0201F8BE
:10243000012B013B9BB2002BF3D170BD6446E2E758
:102440004FF0000CE1E701241BE06400E4B24FEA26
:102450004C0C5FFA8CFC002BEFD00A782243D2B2EE
:102460000A7082EA0C020A700EF10102013B9BB273
:1024700012F0070EE9D1428F114490F89220012A00
:10248000E1D9012AE7D04FF0010CE4E710B501686B
:1024900090F83830DA0082870A7CD200428790F8C0
:1024A00039E04FEACE02C28703EB0E0491F811C067
:1024B000644503DDACEB0E0C1FFA8CF3DB009BB222
:1024C000A0F84020A0F842201A44A0F842208B8AAD
:1024D000A0F84430CB8AA0F8463010BD10B50446B1
:1024E000FFF7D4FF23689A8AA4F84620DB8AA4F871
:1024F000443010BD10B582B00446B0F85630009399
:10250000B0F85230B0F85420B0F85010FFF755FF33
:1025100020B9002384F88C3002B010BD012384F868
:102520008C30B4F84820B4F850309A4201D2A4F864
:102530004830B4F84A20B4F852309A4201D9A4F88D
:102540004A30B4F84C20B4F854309A4201D2A4F87E
:102550004C30B4F84E20B4F856309A42DCD9A4F886
:102560004E30D9E708B50023A0F84830B0F8443021
:10257000B0F84220934202D39A1AA0F84820B0F84B
:1025800040209B1AA0F84A300023A0F84C30B0F845
:102590004630A0F84E30FFF7ADFF08BD10B582B051
:1025A0000C4611469DF81020B0F844C0ACEB040C6A
:1025B0001FFA8CFC8AB90CF1FF3C1FFA8CFCACEBC7
:1025C000030C1FFA8CFC0CF1010C1FFA8CF2012495
:1025D0000094FFF763FE02B010BD0CF1FF3C1FFA40
:1025E0008CF20024F4E708B50022A0F85020A0F8EF
:1025F00054204FF6FF72A0F85220A0F85620036B2B
:102600005B68984708BD70B50446049E0025856543
:10261000C362416380F8382080F8395080F86D50EB
:1026200080F89150012380F8923080F8933006634F
:10263000336898472046FFF7D6FF2046FFF7F4FDA2
:1026400084F8705070BD292901D00120704708B569
:1026500010460AF09FF8012008BD000014390C292B
:1026600008D8DFE801F0390707161A1F0707070720
:1026700007073900002070471848017801F1010C64
:1026800080F800C013F801CB154800F801C0013AEA
:10269000D2B2002AF0D101207047104B00221A70EC
:1026A0000120704700B583B00E4B186803685BB11A
:1026B00064230093094B1B78094A782105F084FCB8
:1026C000012003B05DF804FB044B1A78044978201C
:1026D00002F056F80120F4E701207047500E002068
:1026E000300E0020540E0020084611B10A2903D0F4
:1026F00070474FF6FF7070474FF6FF70704700232A
:1027000080F82630704710B5134604690A46172131
:10271000A04710BD00B583B08DF807100DF107027A
:102720000121FFF7F0FF03B05DF804FB10B5046969
:1027300000231A461821A04710BD10B504690023D4
:102740001A461921A04710BD70B504460D4616461D
:10275000FFF7ECFF40212046FFF7DCFF33462A4617
:10276000172120462569A8472046FFF7E6FF70BDE0
:1027700010B50A46C46800231521A04710BD10B546
:102780000A46C46800231621A04710BD10B51346A1
:10279000C4680A461721A04710BD10B5C4680023BD
:1027A0001A461821A04710BD10B5C46800231A4668
:1027B0001921A04710BD70B582B006460D4616E03F
:1027C00015290CD202B070BDFE29FBD122788DF8FC
:1027D00007202921304600F07EF9023507E02278F3
:1027E0008DF80720F46800233046A04702352C46B8
:1027F00014F8011B1929E7D818290ED21629DFD998
:102800001729DFD123788DF807300DF10702012158
:102810003046FFF7BBFF0235E9E7F56800231A46AB
:102820003046A8472546E2E7F8B5054614461E4659
:10283000A1F1140CBCF1050F56D8DFE80CF03703FA
:10284000181D454A294B1B7873B92846FFF76EFFC0
:1028500000212846FFF75EFF21462846FFF75AFF72
:102860000120224B1870F8BDFFF767FFEDE7114616
:10287000FFF750FF0120F6E71C4B1B7853B1FFF721
:102880005CFF07E0324618212846FFF75DFF183C41
:10289000E4B21836182CF5D8324621462846FFF700
:1028A00053FF124B00221A700120DCE790F824300D
:1028B000FF2B05D02F69334622462846B847D2E77A
:1028C000782380F82430F5E7084B00221A700120A5
:1028D000C9E7064B1B7823B9044B00221A7001206C
:1028E000C1E7FFF72AFFF7E70020BCE7580E0020FA
:1028F000F8B5064615461C460B39042960D8DFE8B2
:1029000001F0035F0E21300022B92E49FFF753FF7B
:10291000012025E02C49FFF74EFF012020E042B9BD
:102920002A49FFF748FF33689B7C86F82230012054
:1029300016E02749FFF73FFF3368DB7C86F822303B
:1029400001200DE0FFF729FF81213046FFF710FF3E
:1029500029463046FFF713FF3046FFF725FF0120D9
:10296000F8BDFFF71AFF6379DB00DBB296F822703F
:102970001F44FFB240213046FFF7FAFE390941F00B
:1029800010013046FFF7F4FE07F00F013046FFF765
:10299000F6FEA17941F0B0013046FFF7F0FE217953
:1029A000C900226801F0F8013046FFF7EFFE6A1E09
:1029B00012F0FF05F3D13046FFF7F6FE0120CFE716
:1029C0000020CDE708DF020800DF0208F8DE020879
:1029D000F0DE020838B505460C46FFF789FF90B9CE
:1029E000092C0AD00A2C0FD1284600F018F8074904
:1029F0002846FFF7E0FE012006E00549284600F0E2
:102A000009F8012000E0012038BD00BF10DF0208F6
:102A1000D8DE020801608B7C80F82230704738B520
:102A2000044600231A4628214569A84700231A4670
:102A300014212046E568A84701224B21204600F0DA
:102A40004AF823681A792921204600F044F8002228
:102A50004B21204600F03FF823681A7929212046AF
:102A600000F039F801224B21204600F034F82368A9
:102A70005A792921204600F02EF838BD10B582B0D1
:102A80008DF805108DF806208DF80430049B009316
:102A900084686B4601220F21A04702B010BD10B51B
:102AA000846800231A460921A04710BD10B5846828
:102AB00000231A460A21A04710BD10B50A468468B3
:102AC00000230B21A04710BD10B5846800231A46CF
:102AD0001021A04710BD10B544690023A04710BDC8
:102AE0000020704700230360074A8260C2600261D1
:102AF000426180F8233080F826308361FF2380F81C
:102B0000243080F828307047E12A0008F8B50446E0
:102B10000F4616461D46FFF7E5FFA760E6602561F4
:102B2000069B63612046FFF7BAFFF8BD70B5C2B0DF
:102B30000C461546B1F5807F01D94FF4807401AE83
:102B4000224601463046FEF7FBFA002333552B7927
:102B50002BB1012B09D0022B0DD042B070BD2A46FB
:102B6000214630460FF07EFCF7E72A46214601A8B1
:102B70000FF072FEF1E72A46214601A80FF0F7FB9D
:102B8000EBE7000070B50446164609E0164B1B78CB
:102B900013BB164B00221A60134B01221A702946F0
:102BA0004D1E01B3114B1B68FF2B04D900230E4AA5
:102BB00013700E4A136014F8013B0D2BE6D00A2B5C
:102BC000E4D0094A1278002AE9D008490A68501C62
:102BD000086007498B54E2E73246044B1968044801
:102BE000FFF7A4FFD5E770BD080000205C0E0020B1
:102BF000600E002008B515F037FE094B01221A704F
:102C000000F098FB00F0CCFC064800F09DF8064868
:102C100000F09AF84FF47A7009F0BCFDFAE700BFB3
:102C2000680F0020006400400068004008B5084AB2
:102C30000021084809F050FD074B186002E0012010
:102C400009F0A8FD054B1B78002BF8D008BD00BF8C
:102C500050DF0208F52B0008640F0020680F0020E9
:102C600008B54FF0FF31064B186809F0FAFD00284F
:102C7000F7D1044805F09AFD432004F0F3FAF0E799
:102C8000A01700207831002070B50D461446084B7F
:102C9000186803681E680023B047064B186803686D
:102CA0001E68002322462946B047204670BD00BF5B
:102CB000300000200C0000200022026002719FED15
:102CC0000C7B80ED027B0263426380F83820026453
:102CD00042648264C264026542658265C2650266BE
:102CE00042668266C2660267704700BFAFF300802B
:102CF0000000000000000000012800D0704708B567
:102D00004FF6FF73994200D008BD0348FFF7D4FF88
:102D10000248FFF7D1FFF7E760100020E80F00201E
:102D20000368064A934205D002F58062934203D1BC
:102D30000348704703487047002070470064004014
:102D4000E80F002060100020254B984204D0254B4E
:102D5000984207D000207047234B244A1360244A2E
:102D60001A6004E0234B214A1360234A1A6070B5AD
:102D70008EB01E4E356800242C71204BD3E9002301
:102D8000C5E902231E4B0DF1280C0FCB8CE80F0078
:102D900062462146012009F00BFDE8632822214606
:102DA000684623F075FF0123089333686946186865
:102DB00003F0BAFE10B100200EB070BD3368186881
:102DC00003F04EFF08B10020F6E733680D4918689C
:102DD00004F097F808B90120EEE70020ECE700BF07
:102DE000006400400068004060100020E00F0020F8
:102DF0002C150020E80F002004150020B01800203A
:102E000058CF02087F8F030008B50368084A934231
:102E100003D0084A934205D008BD074B186809F053
:102E200054FDF9E7054B186809F04FFDF4E700BFC2
:102E300000640040006800408C17002088170020C4
:102E400008B5FFF76DFF10B1436C0133436408BD53
:102E500008B50021FFF7D8FF08BD08B50121FFF72D
:102E6000D3FF08BD08B50221FFF7CEFF08BD08B5A6
:102E70000021FFF7E5FF08BD08B50121FFF7E0FFDE
:102E800008BD08B50221FFF7DBFF08BD38B50446D1
:102E9000FFF746FF68B10546436E01334366084BB2
:102EA000084A0021204603F087FF18B1EB6E01337A
:102EB000EB6638BD024A034928460FF0FFFDF8E7EC
:102EC000BC0F0020C40F002008B5FFF729FF10B188
:102ED000C36C0133C36408BD08B5FFF721FF10B10F
:102EE000036D0133036508BD08B5FFF719FF10B185
:102EF000436D0133436508BD08B5FFF711FF10B1FD
:102F0000836D0133836508BD08B5FFF709FF10B174
:102F1000C36D0133C36508BD10B582B00446FFF729
:102F2000FFFE002835D00346626A0192019A626A68
:102F300012F4006F2FD02168D1F8802142F00102F5
:102F4000C1F88021626A22F400626262626A12F44D
:102F5000005F31D02168D1F8902142F00102C1F820
:102F60009021626A22F400526262626A12F4004F97
:102F700033D02168D1F8A02142F00102C1F8A0218C
:102F8000626A22F400426262626A12B1DA6E01324F
:102F9000DA6602B010BD626A12F4805FD6D0626A4F
:102FA00022F001026262626A22F020026262626AB8
:102FB00022F480526262C9E7626A12F4804FD4D070
:102FC000626A22F001026262626A22F02002626298
:102FD000626A22F480426262C7E7626A12F4803F4A
:102FE000D2D0626A22F001026262626A22F020029A
:102FF0006262626A22F480326262C5E770B504469A
:103000000E46154603681B680E48834203D00E4ADD
:10301000934207D070BD4FF0FF310C4B186809F098
:1030200020FC05E04FF0FF31094B186809F019FC4E
:103030000028EFD1234653F8300B3246294603F0DF
:103040003DFEE7E700640040006800408C17002068
:103050008817002008B54FF6FF710120FFF74CFEDE
:1030600008BD4FF0FF3070474FF0FF307047000051
:10307000012800D070474FF6FF739942FAD1F0B49F
:103080001D4A1E4810601E4B1360012313711D4919
:1030900008601D4B0B6002230B711C4B1C4C1C6009
:1030A000DFF88CC0C3F800C05A601A4D2C601A4F6C
:1030B0002F606B60194B1860194E1E6000229A60D9
:1030C000C3F88C20C3F89020C3F89450154B1C60B3
:1030D000C3F800C0596014490C600F604B60134B7B
:1030E00018601E609A60C3F88C20C3F89020C3F863
:1030F0009410F0BC704700BFB012002060D10208ED
:10310000C0DF020868120020D0DF02086012002031
:10311000B4DF020838120020ACD10208A011002050
:1031200070D102089811002070110020D8100020E2
:1031300080D1020870B55BE0404C204607F09EFC51
:1031400040223F49204607F009FF55E03C4E00234E
:10315000C1F1400231443B48FEF71DFA3A4D286860
:103160003A4AC0F140013044FFF70CFD00232B60C8
:103170004CE0334E0023621A31443248FEF70BFA1A
:10318000314D2868314A211A3044FFF7FBFC2C608E
:1031900040E02F4C204607F071FC40222D4920468C
:1031A00007F0DCFE3AE02B4E0023C1F1400231442F
:1031B0002448FEF7F0F9244D6868274AC0F1400121
:1031C0003044FFF7DFFC00236B6031E0214E002329
:1031D000621A31441B48FEF7DEF91B4D68681E4A2F
:1031E000211A3044FFF7CEFC6C60012009F0D2FABE
:1031F000124B1B6C002B9FD1104B9B6B1B685C68A8
:10320000C4F14004104B1968A1429FD80E4B1968B5
:10321000A142AED30E4B1B6C002BBAD10C4B9B6B57
:103220001B685C68C4F14004074B5968A142BAD8D6
:10323000054B5968A142C9D3D7E700BFB81E00208B
:1032400004130020A0110020FC120020B012002066
:10325000741E002044130020681200202DE9F8435A
:1032600081460F46164698460EB33446402E28BF78
:1032700040240A21124B186809F0F3FAD0B909F179
:103280000505224639462846FDF75AFFA2B22946CF
:103290000C4807F0ADFB80B92744361BB8F1000F8E
:1032A000E2D0D8F800202244C8F80020DCE7002053
:1032B000BDE8F8834FF0FF30FAE74FF0FF30F7E753
:1032C0009C170020B81E00202DE9F84381460F46C8
:1032D000164698460EB33446402E28BF40240A2195
:1032E000124B186809F0BDFAD0B909F1050522465C
:1032F00039462846FDF724FFA2B229460C4807F0BC
:1033000077FB80B92744361BB8F1000FE2D0D8F81C
:1033100000202244C8F80020DCE70020BDE8F88344
:103320004FF0FF30FAE74FF0FF30F7E79817002033
:10333000741E002070B5114E114C402231462046BB
:1033400007F00CFEA36B1B685B68C3F140030D4CD8
:1033500023600D4D4022B118284607F0FFFDAB6BEE
:103360001B685B68C3F140036360084A002108489A
:1033700009F0B2F9074B186070BD00BF04130020BC
:10338000B81E0020FC120020741E0020E8DF020896
:1033900035310008F812002008B50368084A934246
:1033A00003D0084A934205D008BD074B186809F0BE
:1033B0008CFAF9E7054B186809F087FAF4E700BFC3
:1033C000004C0040005000409C170020981700203F
:1033D00008B54FF6FF710120FFF74AFE08BD2DE941
:1033E000F04180460E4614461F469CB12546402CAF
:1033F00028BF4025D8F8080003681B6822463146DC
:10340000984750B92E44641B002FEED03A682A44E6
:103410003A60EAE70020BDE8F0814FF0FF30FAE7BC
:103420004FF0FF3070470000012800D070474FF682
:10343000FF739942FAD110B40F4A10481060104C33
:103440001460012313710F4991600F4B18601C60C9
:1034500003241C7199600D490D4C0C600D4C0C60DF
:103460008A6000220A710C4A10600C491160536096
:103470005DF8044B704700BFC4130020B4DF02089E
:1034800058E0020890170020B8130020AC13002069
:1034900060D1020864E0020884130020ACD1020865
:1034A00010B54FF0FF31154B186809F0DAF9002814
:1034B000F7D1134A136801331360124B1B7A83B997
:1034C000114B1B7A002BECD00F4C00232372626847
:1034D00021680E48FDF7B2FF617A0D4808F0A7FC9D
:1034E000DFE7084C002323720A4A61682068FFF76F
:1034F00049FB617A064808F09AFCE1E7941700203E
:10350000D013002020000020100000208413002091
:10351000542C0020AC130020402A20D870B505465A
:103520000E46144683680A21186809F09AF918B102
:103530000C4A9368013393602A79A1B230460EF0A9
:10354000B5F828B9074A536801335360002070BDAD
:10355000AB68186809F0B9F94FF0FF30F7E74FF0A2
:10356000FF307047D013002008B50A4B5B7A9342B6
:103570000DD0094B5B7A934208D1074B1860596014
:1035800001221A72054B186809F09FF908BD014B1A
:10359000F4E700BF20000020100000209417002056
:1035A00008B5044A0021044809F096F8034B186056
:1035B00008BD00BF7CE00208A1340008DC13002035
:1035C00008B54FF6FF710120FFF72EFF08BD000080
:1035D00030B589B0054614463E4B994203D80929B7
:1035E00002D80A2100E03B493A4B9C4203D8092CFF
:1035F00002D80A2400E0374C00230193029303937E
:1036000004930593069307933348344A0260344A7F
:10361000B2FBF1F2013A4260836040F2E732C260ED
:103620000361836106F0A0FC002840D16023019370
:10363000002202920392059201A9274806F050FD4C
:10364000002837D104220DEB0201234806F048FD83
:10365000002832D1204802F035FB2248224B03607B
:103660001C4BB3FBF4F3013B43600023836040F247
:10367000E732C2600361836106F076FC00BB602321
:103680000193002202920392059201A9154806F0C7
:1036900027FDC0B904220DEB0201124806F020FDFF
:1036A000A0B9104802F00EFB284609B030BD01F069
:1036B00087FEBBE701F084FEC4E701F081FEC9E7A5
:1036C00001F07EFEDBE701F07BFEE3E701F078FE30
:1036D000E7E700BF204801007C1B002000400140BC
:1036E00040900200A41A00200018004070B5042980
:1036F0000AD8DFE801F021030A12190000211C4B4F
:1037000059631C4806F0DEFD70BD194B00229A6318
:103710000421184806F0D6FDF6E70021164B596340
:10372000164806F0CFFDEFE7134B00229A63042101
:10373000124806F0C7FDE7E70D4E002474630D4DF7
:103740002146284606F0BEFDB4630421284606F053
:10375000B9FDA6F594367463084D2146284606F057
:10376000B1FDB4630421284606F0ACFDCCE700BFF0
:10377000004001407C1B002000180040A41A0020DB
:10378000F7EE007AB4EEE70AF1EE10FA0EDDB7EECE
:10379000000ADFED187A20EE270AFCEEC07A042931
:1037A00027D8DFE801F01B0B0F131700B5EEC00A96
:1037B000F1EE10FAEDD59FED100AEAE70F4AC2EDDF
:1037C0000D7A70470D4AC2ED0E7A70470C4AC2ED71
:1037D0000D7A70470A4AC2ED0E7A7047074AC2ED69
:1037E0000D7AC2ED0E7AA2F59432C2ED0D7AC2EDD9
:1037F0000E7A704700007A4400000000004001404B
:103800000018004038B504464FF0000C634614E041
:1038100003F118011E2544F821500133013A002A12
:1038200009DB012191400842F2D003F1180146253D
:1038300044F82150F1E70CF1010CBCF10B0F0ADC4C
:1038400004EB8C0251789078000240EA0140D27873
:1038500010431722E3E7002206E003F118010020DD
:1038600044F82100013301321D2AF6DD9BB204F138
:1038700060020C21074806F0A7FD38B994F8AA3574
:10388000002BFBD0002384F8AA3538BD002384F830
:10389000AA35FAE7541C002038B50546002448E054
:1038A0000B1F07EE903AF8EEE77AB5EE007A67EE76
:1038B000877AB7EE006A36EE676A043A774981FB89
:1038C0000231D317C3EB610303EB4303A2EB830382
:1038D00007EE903AF8EEE77A67EE877AE3B29FED6B
:1038E000707A66EE076A27EE877A76EE875AFCEEE4
:1038F000E55A15EE900ADFED6B5A26EE256A37EE93
:10390000067ABCEEC77A17EE102A67EEA57A76EE35
:10391000A76AFCEEE67A17EE901A05F8233005EB5D
:1039200083035A709870D9702846FFF76BFF0134F3
:10393000A4B20B2C00F2A580B5F8A825224492B2BF
:10394000594BA3FB0213DB0803EB4303A2EB8303F6
:1039500099B2C3F38D03012BA2D0022B48D0002BC8
:10396000E5D107EE901AF8EEE77AF5EE006A67EE19
:10397000A67AB7EE007A37EE677AA3F1553303F1F2
:10398000004383FB02135B1003EB4303A2EB8303AF
:1039900007EE903AF8EEE77A67EEA67AE2B2DFED4C
:1039A000415A27EE256A9FED3E5A67EE856A36EE4C
:1039B000266ABCEEC66A16EE100A27EE057A67EE96
:1039C000A57A77EE277AFCEEE77A17EE903A76EE54
:1039D000876AFCEEE67A17EE901A05F8222005EBCE
:1039E000820253709070D1702846FFF70BFF9EE75C
:1039F000A1F1080307EE903AF8EEE77AB5EE007A07
:103A000067EE877AF7EE006A76EEE76A083A2349AE
:103A100081FB0231D317C3EB610303EB4303A2EB3A
:103A2000830307EE903AF8EEE77A67EE877AE2B220
:103A30009FED1B5A26EE857ADFED1A5A27EEA56A0E
:103A400037EE066ABCEEC66A16EE100A67EE857A95
:103A500037EE277ABCEEC77A17EE101A66EEA56A23
:103A600077EEA67AFCEEE77A17EE903A05F8222078
:103A700005EB820251709070D3702846FFF7C2FEAA
:103A800055E7B5F8A8350B2B03D90023A5F8A835C1
:103A900038BD0133A5F8A835FAE700BFABAAAA2ABA
:103AA0000000000000007F43ABAAAAAA00000000AB
:103AB000F8B50446B0F8A8352B2B4DD92D2B4DD891
:103AC00003EB8300C0B22430C0B2554BA3FB0030DF
:103AD000C008C0EB0025FCF7C5FC02460B460020E1
:103AE0005049FCF771FB00220023FCF725FD064638
:103AF0000F462846FCF7B6FC32463B46FCF766FB11
:103B0000FCF7F2FFC6B200250B2D1DD8EBB204F86E
:103B1000233004EB83035E709E70DE702046FFF757
:103B200071FE0135ADB2EFE7EBB204F8233004EBE0
:103B3000830300225A709A70DA702046FFF762FE03
:103B40000135ADB20B2DEFD9B4F8A8354B2B5ED9AA
:103B50000023A4F8A835F8BD0025F3E7352B31D9AB
:103B6000372B52D803EB8303D8B20C38C0B22C4B9E
:103B7000A3FB0030C008FCF775FC02460B46002092
:103B80002849FCF721FB24A3D3E90023FCF7D4FC4C
:103B900000220023FCF71AFBFCF7A6FFC6B20025A3
:103BA0001FE0EBB204F8233004EB8303FF225A70CA
:103BB0009A70DA702046FFF725FE0135ADB20B2D65
:103BC000EFD9C1E70025FAE7EBB204F8233004EBA4
:103BD00083035E709E70DE702046FFF713FE013592
:103BE000ADB20B2DF0D9AFE7EBB204F8233004EB04
:103BF000830300225A709A70DA702046FFF702FEA3
:103C00000135ADB20B2DEFD99EE70025FAE7013360
:103C1000A4F8A8359FE700BF0000000000E06F4057
:103C2000CDCCCCCC0000F03F2DE9F8430546B0F8F0
:103C3000A80500EB80008000FCF714FC0022204B5C
:103C4000FCF7A4FD804689461BA3D3E90023FCF7BB
:103C500073FC06460F4642464B4600201949FCF7C6
:103C6000B3FA00220023FCF767FC02460B463046FD
:103C70003946FCF7ABFAFCF737FFC6B200240CE07C
:103C8000E3B205F8233005EB83035E709E70DE70AF
:103C90002846FFF7B7FD0134A4B20B2CF0D9B5F8D4
:103CA000A835232B04D90023A5F8A835BDE8F8834F
:103CB0000133A5F8A835F9E70000000000E06F40E7
:103CC00000F885400000F03F2DE9F0410546002650
:103CD000B04637460339032915D8DFE801F011074C
:103CE000020C64274FF0000846460CE000274FF016
:103CF00064083E4607E000274FF00A083E4602E00F
:103D00000027B846642600240DE0E3B205F823300E
:103D100005EB830383F801809E70DF702846FFF770
:103D200071FD0134A4B20B2CEFD9BDE8F081002263
:103D3000A0F8A82580F8AA25704708B5052906D857
:103D4000DFE801F00306090C1014FFF7A5FD08BD1C
:103D5000FFF76AFFFBE7FFF7ABFEF8E70321FFF78A
:103D6000B3FFF4E70421FFF7AFFFF0E70521FFF70A
:103D7000ABFFECE780F8AA15704700B583B090F868
:103D800008010091032302221A2100F09DFB03B0D9
:103D90005DF804FB30B583B005460C460091022364
:103DA00004221B2190F8080100F08EFB032C06D89A
:103DB000DFE804F002070B0F084BC5F8DC3003B056
:103DC00030BD074BC5F8DC30F9E7064BC5F8DC30F1
:103DD000F5E7054BC5F8DC30F1E700BF6F12034390
:103DE0006F1283426F1203426F12834130B583B06A
:103DF00005460C460091022304221C2190F808017C
:103E000000F062FB032C07D8DFE804F002080D1273
:103E10004FF08D43C5F8E03003B030BD4FF08C4318
:103E2000C5F8E030F8E74FF08B43C5F8E030F3E732
:103E30004FF08A43C5F8E030EEE7F0B583B00446B2
:103E40000F4616461D464FF47A73009300F209138D
:103E50000E223B2190F8080100F086FA94F809211F
:103E600094F80A3143EA02233B8094F80B2194F83A
:103E70000C3143EA0223338094F80D2194F80E317B
:103E800043EA02232B8094F8112194F8123143EA7B
:103E90000223089A138094F8132194F8143143EA0A
:103EA0000223099A138094F8152194F8163143EAF5
:103EB00002230A9A138003B0F0BD08B50B46062210
:103EC0006B2190F8080100F0D9FA08BD00B583B065
:103ED00090F808010091032302226B2100F0F4FA0C
:103EE00003B05DF804FB10B504460121FFF7EEFFB7
:103EF00000212046FFF74EFF00212046FFF776FF06
:103F000002212046FFF739FF00212046FFF7D5FFA9
:103F100010BD10B582B0044600F209134FF47A7256
:103F20000192009306231A46752190F8080100F0CB
:103F30004FFA94F8090102B010BD08B5FFF7E9FF88
:103F4000342814BF0020012008BD30B585B00446D8
:103F50000D4600F1EE03029300F1EC03019300F132
:103F6000EA03009300F1E80300F1E60200F1E40146
:103F7000FFF763FFB4F9E43007EE103AB8EEC77A02
:103F8000D4ED387A87EE270A84ED3C0AB4F9E6309E
:103F900007EE103AB8EEC77AC7EE276AC4ED3D6A5D
:103FA000B4F9E83007EE103AB8EEC77AC7EE276AE0
:103FB000C4ED3E6AB4F9EA3007EE103AB8EEC77ABB
:103FC000D4ED377AC7EE276AC4ED3F6AB4F9EC3016
:103FD00007EE103AB8EEC77AC7EE276AC4ED406A1A
:103FE000B4F9EE3007EE103AB8EEC77AC7EE276A9A
:103FF000C4ED416A0DB905B030BD04F1700000F0A8
:104000000FF984ED3C0A94ED3D0A04F1940000F0B0
:1040100007F984ED3D0A94ED3E0A04F1B80000F082
:10402000FFF884ED3E0A94ED3F0A201D00F0F8F8F9
:1040300084ED3F0A94ED400A04F1280000F0F0F806
:1040400084ED400A94ED410A04F14C0000F0E8F8D8
:1040500084ED410ACFE770B52DED048B0646B0EE36
:10406000408AB0EE609AF0EE418A002516E0EC003E
:1040700005EBC50006EB8000F0EE490AB0EE480AF9
:10408000043000F0C3F8601980007030F0EE680A68
:10409000B0EE480A304400F0B9F80135022DE6DDF3
:1040A000BDEC048B70BD000010B5044608462160CD
:1040B00084F8082100F052F99FED051ADFED050A9A
:1040C0009FED050A2046FFF7C6FF204610BD00BF42
:1040D000000048420000C8420000484338B52DEDBA
:1040E000048B0446F0EE418A0D46DFED417A20EE66
:1040F000270A20EE200ADFED3F7A20EE278AB0EE75
:10410000480A00F0B5F8B0EE409AB0EE480A00F068
:104110001BF978EEA88AC9EE287A012D40D0022D2D
:1041200051D025B3B7EE007A77EE877AD4ED006AE6
:1041300086EEA77A84ED007AD4ED016A86EEA77A3E
:1041400084ED017AD4ED026A86EEA77A84ED027AD4
:10415000D4ED036A86EEA77A84ED037AD4ED046A7F
:1041600086EEA77A84ED047ABDEC048B38BDF7EEB9
:10417000006A36EEC07A84ED017AB6EE006A27EE68
:10418000067A84ED007A84ED027AB8EE007A20EEA9
:10419000070A84ED030A76EEE76AC4ED046AC1E714
:1041A000B7EE007A84ED007AF8EE006A20EE260A77
:1041B00084ED010A84ED027A84ED030A37EE677A12
:1041C00084ED047AAEE7C4ED007A00236360B1EEBB
:1041D000677A84ED027AB8EE007A20EE070A84ED61
:1041E000030AB7EE007A37EE677A84ED047A99E72E
:1041F000DB0FC940BD37863510B50446FFF76EFFAB
:104200000023A36163612362E36110BD08B500214F
:104210009FED021AFFF7F0FF08BD00BFF304353F22
:10422000B0EE407AD0ED007A67EE807AD0ED056A84
:1042300037EEA60AD0ED017A67EE877AD0ED036AF1
:1042400066EE806A77EEE67AD0ED066A77EEA67AB9
:10425000C0ED057AD0ED027A67EE877A90ED047AA8
:1042600027EE007A77EEC77AC0ED067A7047000035
:10427000FDEEC07A17EE903A2033402B06D99FED21
:10428000290A7047DFED287A30EE670ADFED277ADA
:10429000B4EEE70AF1EE10FAF4DC03E0DFED227A87
:1042A00030EE270ADFED227AB4EEE70AF1EE10FADB
:1042B000F4D4DFED207AB4EEE70AF1EE10FA20DD57
:1042C00030EE670A37EEC00A60EE006A20EE267A0A
:1042D000DFED147A66EEA77A9FED176A77EEC67A5D
:1042E00067EEA67A9FED156A77EE867A67EEA67A74
:1042F000DFED136A77EEE67A67EE277A37EE800A0B
:104300007047DFED107AB4EEE70AF1EE10FADBD574
:10431000DFED087A30EE270ADFED0A7A37EEC00AC1
:10432000D2E700BF00000000DB0FC940DB0F4940AF
:10433000DB0F49C0DB0FC93F92E741399730083C9A
:1043400015A82A3EDB0FC9BF08B5DFED037A30EEB2
:10435000270AFFF78DFF08BDDB0FC93F014B18602F
:10436000704700BFE01300202DE9F04184B01546EE
:104370001F46BDF828608DF80F100EB94FF47A76FD
:104380004400DFF83480009601230DF10F0221462E
:10439000D8F8000003F018FE00962B463A46214656
:1043A000D8F8000003F0CCFE18B1FF2004B0BDE83F
:1043B000F0812846FAE700BFE013002000B583B083
:1043C000009313460122FFF7CFFF03B05DF804FB13
:1043D00030B583B014461D46BDF81C300DF1070200
:1043E000FFF7ECFF88B10121A9400139621B0132BE
:1043F00001FA02F39DF807100B408DF807301341C6
:10440000DBB28DF80730069A137003B030BD0000A0
:104410002DE9F04383B00646884615461F4602F153
:104420000109484622F07EF8044600F8018B2A462E
:104430003946FCF785FE4FF47A7300934B462246CB
:1044400071000748006803F0BFFD0546204622F0D2
:1044500071F8B5FA85F0400903B0BDE8F08300BFFC
:10446000E013002000B583B08DF807200DF107039D
:104470000122FFF7CDFF03B05DF804FBF0B583B078
:1044800004460D4616461F460E4B1B880DF10702CB
:10449000FFF794FF6FB10123B3409DF807201A4343
:1044A000D2B28DF8072029462046FFF7DBFF03B084
:1044B000F0BD0123B340DB435BB29DF807201A40F7
:1044C000EFE700BF34000020F0B583B004460D468E
:1044D00016461F4664230DF10702FFF76FFF10B960
:1044E000002003B0F0BD4FF0010C0CFA07FC0CF1FA
:1044F000FF3CF61B01360CFA06F39DF82010B14084
:10450000C9B21940DB435BB29DF807201A408DF811
:1045100007200A438DF8072029462046FFF7A2FF0F
:10452000DFE7000010B582B00190019BB3F5617F19
:104530000DD84FF0E0239A69019B002A20DB4FF051
:10454000E0239B699A4200DDF9DD02B010BD002432
:10455000019B0D4AA2FB0323B4EB532F05D24FF46A
:104560006170FFF7DFFF0134F2E7019A064BA3FB0E
:1045700002135B0A4FF4617101FB13230193D8E727
:104580004FF0E0239B69FBE7C5B3A29100B587B06C
:104590004FF400630193012302930223049301A9C2
:1045A000024803F00FF907B05DF804FB0004024075
:1045B00000B587B04FF400630193002302930223F8
:1045C000049301A9024803F0FDF807B05DF804FB6D
:1045D0000004024000B587B04FF4806301930123CB
:1045E00002930223049301A9024803F0EBF807B0F9
:1045F0005DF804FB0004024010B5FFF7EBFFFFF786
:10460000C5FF074C01224FF48061204603F0D7F923
:1046100001224FF40061204603F0D1F910BD00BF24
:104620000004024010B5FFF7B1FF104C01224FF417
:104630000061204603F0C3F901224FF48061204657
:1046400003F0BDF90420FFF76DFF00224FF4006175
:10465000204603F0B4F90420FFF764FF00224FF472
:104660008061204603F0ABF910BD00BF000402409A
:1046700010B5FFF78BFF104C00224FF480612046ED
:1046800003F09DF900224FF40061204603F097F9F2
:104690000420FFF747FF01224FF48061204603F01A
:1046A0008EF901224FF40061204603F088F90420BE
:1046B000FFF738FF10BD00BF0004024038B5FFF718
:1046C00077FF174C01224FF40061204603F077F981
:1046D0000120FFF727FF01224FF48061204603F0FD
:1046E0006EF90120FFF71EFF00244FF400610C4813
:1046F00003F05EF9054638B10134E4B2FA2CF4D97E
:10470000FFF7B6FF012508E000224FF4806100F1B9
:10471000804000F5013003F052F9284638BD00BF53
:104720000004024070B50446FFF730FF00224FF44A
:104730008061124803F043F900251CE00F4EE209A6
:104740004FF40061304603F03AF96400E4B205200A
:10475000FFF7E8FE01224FF48061304603F02FF9A5
:104760000520FFF7DFFE00224FF48061304603F0A2
:1047700026F90135EDB2072DE0D970BD00040240E5
:1047800070B504460E461546FFF74CFF2046FFF76E
:10479000C9FFFFF793FF002405E0305DFFF7C2FF7C
:1047A000FFF78CFF0134A542F7DCFFF761FF70BD16
:1047B00030B583B04FF0E0252B6901F0A1FD6C69A5
:1047C0000134AB69E31A01932B6913F4803F0AD1DA
:1047D0004FF47A72019B02FB03F3B3FBF4F302FB89
:1047E000003003B030BD01F08BFDAB69E31A0193DB
:1047F000EEE708B5006805F09DF908BD10B52DED90
:10480000028B044606EE901AB6EE008A38EE088A4D
:104810009FED2C7AC7EE087AF8EE668A87EEA87AC2
:10482000DFED297AB4EEE77AF1EE10FAEEDC2368D8
:104830001B68264A934229D002F50062934225D094
:1048400002F58062934221D0214A934203D002F5BF
:104850008062934232D118EE100AFBF715FE41EC4C
:10486000100B1CF0B9F951EC100BFCF73DF983B2B9
:104870005B002381DFED137A87EEA87AC7EE087A12
:10488000FCEEE77A17EE903A638117E018EE100A13
:10489000FBF7FAFD41EC100B1CF09EF951EC100BEC
:1048A000FCF722F92081DFED077A87EEA87AC7EEC0
:1048B000087AFCEEE77A17EE903A6381BDEC028B42
:1048C00010BD00BFA037A04C00FF7F470014004080
:1048D0000044014070B505460C461646532303813B
:1048E00042F20F734381244A244B1A60244B25491A
:1048F0001960254B01F580611960244BA1F59631B3
:104900001960234B01F580611960236893420FD031
:1049100002F5983293420BD002F58062934207D0A1
:10492000A2F59632934203D08B4201D000F048FDAD
:1049300026B1184B9E4202D9164E00E001262C608B
:104940006E6031462846FFF759FF204605F0C3F850
:104950002B89013B63600022A2606B89013BE3600D
:1049600022618023A361204605F0D2FA08B92846C7
:1049700070BD00F025FDFAE700140040C41B0020C4
:10498000341B002000440140EC1A00205C1A002077
:10499000141A00208096980003681B680F4A9342FF
:1049A0000CD00F4A93420CD00E4A93420CD00E4AC0
:1049B00093420CD00D4A93420CD070470C4B1960B7
:1049C00070470B4B59607047094B99607047084B13
:1049D000D9607047064B1961EFE700BF0014004033
:1049E0000044014000480140001C004000200040FD
:1049F0003814002008B5114B98420FD0104B984244
:104A000010D0104B984211D00F4B984212D00F4B40
:104A1000984206D10E4B1B69984702E00C4B1B686D
:104A2000984708BD0A4B5B689847FAE7084B9B68B4
:104A30009847F6E7064BDB689847F2E7001400401A
:104A40000044014000480140001C0040002000409C
:104A50003814002000B585B0002300930193029321
:104A600003933848384A02604FF4803242608360D2
:104A700001220261027680F82030C36233498162EC
:104A8000C3600623C36180F83020426101F0ECFC72
:104A9000002841D10C2300930123019302230293A8
:104AA0006946284801F0CEFE002838D10D23009336
:104AB000022301936946234801F0C4FE002831D146
:104AC0000E2300930323019369461E4801F0BAFEAA
:104AD00058BB0F230093042301936946194801F042
:104AE000B1FE28BB102300930523019369461548A6
:104AF00001F0A8FEF8B9112300930623019369463B
:104B0000104801F09FFEC8B90E48C269104901F073
:104B1000D7FC05B05DF804FB00F052FCBAE700F0EA
:104B20004FFCC3E700F04CFCCAE700F049FCD0E7BB
:104B300000F046FCD6E700F043FCDCE700F040FC68
:104B4000E2E700BFAC140020002001400100000F8C
:104B5000F414002030B589B0002303930493059327
:104B600006930793026803F1804303F590339A425A
:104B700001D009B030BD04460025019503F58C3302
:104B80005A6C42F480725A645A6C02F48072019238
:104B9000019A02951A6B42F004021A631B6B03F030
:104BA00004030293029B3C2303930323049303A96E
:104BB000144802F007FE1448144B036045608560FA
:104BC000C5604FF4806303614FF4006343614FF4A9
:104BD000005383614FF48073C3610562456202F044
:104BE000D7FB58B9084BA3639C6300220521122010
:104BF00002F028FB122002F035FBBAE700F0E0FBE0
:104C0000F0E700BF000802404C140020106402408E
:104C10000E4B1B890E4A918D89B25B1A07EE103A32
:104C2000B8EEC77ADFED0B7A27EE277AD38D9BB2E9
:104C3000928D92B29B1A07EE903AF8EEE77A87EEE1
:104C4000270AF3EE0E7A30EE270A7047F41400209C
:104C5000007AFF1F0000A0420B4B5B8D9BB207EE5A
:104C6000903AF8EE677A9FED097A67EE877A084BFB
:104C70005B8907EE103AB8EE477A87EE870ADFEDD8
:104C8000057A80EE270A7047007AFF1F00404E45E4
:104C9000F414002000007A4408B50E480E4B03605F
:104CA0000723436000238360C3604FF40032026136
:104CB0004FF4801242610376437601228276C376F6
:104CC0000377427701F089FE00B908BD00F078FB58
:104CD000FBE700BF2C1500200064004008B50E481B
:104CE0000E4B03600723436000238360C3604FF4CF
:104CF000003202614FF48012426103764376012252
:104D00008276C3760377437701F067FE00B908BD6A
:104D100000F056FBFBE700BF0415002000680040D0
:104D20002DE9F0418AB00023059306930793089379
:104D300009930368684A934205D0684A934260D059
:104D40000AB0BDE8F081664A136801331360012B95
:104D50004AD000240194634B1A6B42F002021A639A
:104D60001B6B03F002030193019B4FF480730593C7
:104D70004FF00208CDF81880012307930327089706
:104D800009260996584D05A9284602F01BFD4FF447
:104D900000730593CDF8188007940897099605A924
:104DA000284602F00FFD22460521132002F04AFAA0
:104DB000132002F057FA22460521142002F042FA8D
:104DC000142002F04FFA22460521152002F03AFA8B
:104DD000152002F047FA22460521162002F032FA89
:104DE000162002F03FFAABE7002300933D4B1A6C0C
:104DF00042F000721A641B6C03F000730093009B76
:104E0000A7E700230293374B1A6C42F080621A64C2
:104E10001B6C03F080630293029B314A13680133D9
:104E20001360012B4AD0002404942E4B1A6B42F0DD
:104E300002021A631B6B03F002030493049B4FF4FA
:104E4000805305934FF00208CDF818800123079393
:104E50000327089709260996234D05A9284602F03D
:104E6000B1FC4FF400530593CDF8188007940897D0
:104E7000099605A9284602F0A5FC224605213F20F7
:104E800002F0E0F93F2002F0EDF922460521402032
:104E900002F0D8F9402002F0E5F922460521412030
:104EA00002F0D0F9412002F0DDF92246052142202E
:104EB00002F0C8F9422002F0D5F941E7002303933C
:104EC000084B1A6C42F000721A641B6C03F00073FA
:104ED0000393039BA7E700BF006400400068004005
:104EE00000150020003802400004024010B582B0D6
:104EF00000240094224B1A6B42F400121A631A6BBE
:104F000002F400120092009A01941A6B42F480029B
:104F10001A631B6B03F480030193019B2246062155
:104F20000B2002F08FF90B2002F09CF9224606219B
:104F30000D2002F087F90D2002F094F92246062197
:104F40000F2002F07FF90F2002F08CF92246052194
:104F5000112002F077F9112002F084F9224606218F
:104F60002F2002F06FF92F2002F07CF92246052154
:104F7000382002F067F9382002F074F902B010BD51
:104F80000038024008B50CF02BFB0DF037F9024B4E
:104F9000186809F07FF808BD8417002010B5A6B086
:104FA0003E4C0DF1880C94E80F008CE80F0062462F
:104FB0000021012007F0FCFB394B18600DF1780C43
:104FC00004F110030FCB8CE80F0062460121084664
:104FD00007F0EEFB334B18600DF1680C04F1200371
:104FE0000FCB8CE80F0062460121084607F0E0FB7A
:104FF0002D4B18600DF1580C04F130030FCB8CE8E9
:105000000F0062460021012007F0D2FB274B1860F9
:105010000DF1480C04F140030FCB8CE80F00624601
:105020000121084607F0C4FB214B18600DF1380C34
:1050300004F150030FCB8CE80F00624601210846B3
:1050400007F0B6FB1B4B18600DF1280C603494E898
:105050000F008CE80F0062460121084607F0A8FB0C
:10506000154B18602422002101A821F011FE134BDA
:1050700001934FF4FA7306932023079301AA0021AA
:105080000F4807F029FB0F4B18600F4A00210F480B
:1050900007F022FB0E4B186026B010BD68CF020847
:1050A000A01700209C1700209817002094170020BC
:1050B000901700208C17002088170020A0E002081D
:1050C000612C0008600F0020B8E00208854F00083E
:1050D0008417002070B58AB00024059406940794C4
:1050E000089409940094284B1A6B42F004021A6346
:1050F0001A6B02F004020092009A01941A6B42F0BB
:1051000080021A631A6B02F080020192019A0294E3
:105110001A6B42F001021A631A6B02F0010202924A
:10512000029A03941A6B42F002021A631A6B02F09D
:1051300002020392039A04941A6B42F008021A6363
:105140001B6B03F008030493049B104D01224FF4E2
:105150008071284602F033FC4FF400530593069407
:105160000126079605A9284602F02CFB4FF4807310
:105170000593069607940223089305A9284602F092
:1051800021FB0AB070BD00BF003802400008024099
:1051900008B50B480B4B03600B4B43600023836047
:1051A000C3604FF48042026143618361C361036263
:1051B00002F02CFE00B908BD00F002F9FBE700BFC9
:1051C0004C18002000540040801A060008B50B4817
:1051D0000B4B03600B4B436000238360C3604FF4B1
:1051E0008042026143618361C361036202F00EFE8B
:1051F00000B908BD00F0E4F8FBE700BFF817002095
:1052000000580040801A060008B50B480B4B03609D
:105210000B4B436000238360C3604FF48042026104
:1052200043618361C361036202F0F0FD00B908BD10
:1052300000F0C6F8FBE700BFA4170020005C0040A8
:10524000801A06002DE9F0438DB0002307930893E0
:1052500009930A930B9303684B4A934208D04B4A35
:1052600093422AD04A4A93424DD00DB0BDE8F08314
:1052700000250095474C236B43F002032363236B07
:1052800003F002030093009BC023079312230893AB
:105290000123099303230A9304230B9307A93E4890
:1052A00002F090FA0195236C43F400132364236CFD
:1052B00003F400130193019BD7E700250295354CB9
:1052C000236B43F002032363236B03F00203029377
:1052D000029B4FF440630793122308930123099321
:1052E00003230A9304230B9307A92B4802F06AFABD
:1052F0000395236C43F480032364236C03F480033D
:105300000393039BB1E700250495224C236B43F0E4
:1053100004032363236B03F004030493049B0595A8
:10532000236B43F001032363236B03F00103059315
:10533000059B4FF4007307934FF01209CDF82090AE
:105340004FF00108CDF8248003270A9704260B9616
:1053500007A9124802F036FA4FF480730793CDF88C
:105360002090CDF824800A970B9607A90C4802F0EC
:1053700029FA0695236C43F400032364236C03F499
:1053800000030693069B70E700540040005800405D
:10539000005C004000380240000402400008024067
:1053A0000000024008B50068044B984202D0FFF7A5
:1053B00021FB08BD00F098FFFBE700BF0010004094
:1053C00072B6FEE700B595B03022002108A821F0A2
:1053D0005FFC0023039304930593069307930193C3
:1053E000204A116C41F080511164126C02F080521D
:1053F0000192019A02931C4B1A6842F480421A608F
:105400001B6803F480430293029B012308934FF42B
:105410008033099302230E934FF480020F920422EB
:105420001092A822119212930723139308A803F055
:105430009BFD98B90F230393022304930023059344
:105440004FF4A05306934FF480530793052103A80C
:1054500003F0F4FF20B915B05DF804FBFFF7B0FFCF
:10546000FFF7AEFF003802400070004010B5274A39
:10547000D2F8103AD2F8181A0B44180CB2F8161ACF
:1054800041EA03410346224A1160506000220CE0C9
:10549000C3F303301F4C14F800C01F4800F802C0CB
:1054A0001B0143EA1173090101320B2AF0D91A4B8F
:1054B00000221A7300F0FEFE04F0B4F8FFF782FF3A
:1054C000FFF708FEFFF712FDFFF762FEFFF77EFE13
:1054D000FFF7E2FBFFF702FC00F098FDFFF794FEF8
:1054E00000F01CF800F03AF800F05CFDFFF7B2FAAB
:1054F00000F072FD00F04EFC00F080FA07F0BEF8FC
:10550000FFF74CFD07F0CCF8FEE700BF0070FF1F6F
:10551000B0180020DCE00208A018002008B50D48F3
:105520000D4B03604FF48273436000238360C360BC
:10553000036143614FF400728261C361036243629D
:1055400083620A23C36204F00BF900B908BDFFF7B8
:1055500037FFFBE7101900200030014008B50D4867
:105560000D4B03604FF48273436000238360C3607C
:10557000036143614FF400728261C361036243625D
:1055800083620A23C36204F0EBF800B908BDFFF799
:1055900017FFFBE7B8180020003C0040F0B58DB0C5
:1055A00000230793089309930A930B9303683F4AD8
:1055B000934204D03E4A934238D00DB0F0BD00244F
:1055C00001943C4B5A6C42F480525A645A6C02F477
:1055D00080520192019A02941A6B42F001021A63FE
:1055E0001A6B02F001020292029A03941A6B42F0C3
:1055F00002021A631B6B03F002030393039BA023B5
:1056000007930227089703260A9605250B9507A9F5
:10561000294802F0D7F810230793089709940A96AF
:105620000B9507A9254802F0CDF8C6E7002404949D
:10563000204B1A6C42F400421A641A6C02F40042C5
:105640000492049A05941A6B42F004021A631A6BCE
:1056500002F004020592059A06941A6B42F00202C7
:105660001A631B6B03F002030693069B4FF440631F
:1056700007930227089703260A9606250B9507A984
:105680000F4802F09FF820230793089709940A9681
:105690000B9507A9094802F095F822460521332009
:1056A00001F0D0FD332001F0DDFD86E70030014040
:1056B000003C00400038024000000240000402406C
:1056C0000008024000B583B0002200920D4B596CD7
:1056D00041F480415964596C01F480410091009972
:1056E0000192196C41F0805119641B6C03F08053D6
:1056F0000193019B0F216FF0010001F0A3FD03B0A6
:105700005DF804FB0038024010B588B00146002265
:10571000362001F097FD362001F0A4FD002401940D
:10572000144B1A6C42F010021A641B6C03F0100345
:105730000193019B02A903A803F056FF03F034FF75
:1057400043000D4AA2FB03239B0C013B0B480C4A70
:10575000026040F2E732C26043600461846004F09A
:10576000D7FB10B1012008B010BD044804F0E2F9E5
:10577000F9E700BF0038024083DE1B4368190020B0
:1057800000100040FEE7FEE7FEE7FEE7FEE7704799
:1057900008B5024801F026FF08BD00BF101D00201B
:1057A00008B5024801F01EFF08BD00BFD01D002053
:1057B00008B5024801F016FF08BD00BF701D0020AB
:1057C00008B5024801F00EFF08BD00BFB419002063
:1057D00008B5024800F04BFF08BD00BFAC14002024
:1057E00008B5024801F09FFB08BD00BF2C15002042
:1057F00008B5074B1B685A6912F0020F03D0DB682B
:1058000013F0030F00D108BD0148FDF73FFBFAE795
:105810002C15002008B5024801F085FB08BD00BF2B
:105820002C15002008B5024801F07DFB08BD00BF23
:105830002C15002008B5024804F01AFA08BD00BF74
:10584000341B002008B5024804F012FA08BD00BF5E
:10585000EC1A002008B5024804F00AFA08BD00BF9F
:10586000541C002008B5024804F002FA08BD00BF2D
:105870000C1C002008B5024804F0FAF908BD00BF6E
:105880005C1A002008B5024804F0F2F908BD00BF18
:10589000141A002008B5024801F0A4FE08BD00BF9C
:1058A000B01C002008B5024803F0BAFF08BD00BFD5
:1058B000B818002008B5024805F0D6F908BD00BFA9
:1058C000B81E002008B5024805F0CEF908BD00BF9B
:1058D000741E002008B5024804F0CAF908BD00BFD4
:1058E0006819002008B5024804F0C2F908BD00BFDD
:1058F000C41B002008B5024801F074FE08BD00BFBB
:105900004C14002008B5024801F00DFB08BD00BF93
:105910000415002008B5024801F005FB08BD00BFD2
:105920000415002008B5024801F0FDFA08BD00BFCB
:105930000415002008B5024801F0F5FA08BD00BFC3
:105940000415002008B5024802F030FF08BD00BF72
:10595000783100200120704708B51DF081FB162327
:1059600003604FF0FF3008BD08B54FF0FF31FFF77F
:10597000F3FFFEE770B50C461646002506E0AFF3D0
:105980000080214601F8010B01350C46B542F6DBDB
:10599000304670BD08B503460B4A126842B10A4A48
:1059A000106803446A46934206D8074A136008BD4C
:1059B000054A06491160F2E71DF052FB0C23036013
:1059C0004FF0FF30F3E700BFB0190020186F002040
:1059D0004FF0FF3070474FF400534B60002070478A
:1059E0000120704700207047034AD2F8883043F402
:1059F0007003C2F88830704700ED00E000B58DB04C
:105A00002422002103A821F043F9002301930293EB
:105A10001648174A0260436083604FF6FF72C26007
:105A200003618361032303930122059204230793F7
:105A300009920B9303A904F0C3FA88B900230193D8
:105A4000029301A9094804F081FE60B9084B0022C5
:105A50005A621A6902F0FE021A610DB05DF804FB89
:105A6000FFF7AEFCEAE7FFF7ABFCEFE70C1C00200A
:105A70000004004010B586B00368B3F1804F11D028
:105A8000554A934244D0554A934255D0544A934282
:105A900066D0544A934277D0534A934200F08880AC
:105AA00006B010BD044600230093504A116C41F02B
:105AB00001011164126C02F001020092009A4C483C
:105AC0004C4A02604FF0C062426040228260C36074
:105AD0004FF4806202614FF4805242614FF4804281
:105AE0008261C3610362436201F052FC68B9404BBA
:105AF000A3629C6323639C63002205211C2001F0A8
:105B0000A1FB1C2001F0AEFBCAE7FFF759FCEEE752
